:100000000205E00205C2000000000002000000003E
:100010000000000200000000000000020591000046
:06002000000000020000D8
:1000260001F178412278A02278422278A12278E054
:100036002278452278A22278A32278A42278A522C3
:1000460078A622784B2278A722784D227848227803
:100056004F2278A82278502278432278542278A911
:100066002278AA2278582278E12278AB2278AC222C
:1000760078E22278AD2278AE2278622278AF2278B2
:10008600B02278B12278612278B22278B32278B48D
:100096002278E32278652278B52278B62278B722CC
:1000A60078B82278B92278BA2278BB2278BC22782E
:1000B600BD22786F2278BE2278702278632278BFBC
:1000C6002278792278E42278782278E52278C0228C
:1000D60078C12278E62278C22278C32278C42278B0
:1000E600C52278C62278C722A81222E51264C070FB
:1000F600020128E51264C17002012BE51264C27088
:1001060002012EE51264C370020131E51264C47067
:10011600020134E51264C570020137E51264A87065
:1001260002013AE51264C67002013DE51264C77029
:10013600020140E51264C870020143E51264C97009
:10014600020146E51264CA70020149E51264CB70E9
:1001560002014CE51264CC7002014FE51264CD70C9
:10016600020152E51264CE70020155E51264CF70A9
:10017600020158E51264D07002015BE51264D17089
:1001860002015EE51264D270020161E51264D37069
:10019600020164E51264D470020167E51264D57049
:1001A60002016AE51264D67002016DE51264D77029
:1001B600020170E51264D870020173E51264D97009
:1001C600020176E51264DA70020179E51264DB70E9
:1001D60002017CE51264DC7002017FE51264DD70C9
:1001E600020182E51264DE70020185E51264DF70A9
:1001F600020188E51264E07002018BE51264E17089
:1002060002018EE51264E270020191E51264E37068
:10021600020194E51264E470020197E51264E57048
:1002260002019AE51264B87002019DE51264E67057
:100236000201A0E51264E7700201A3E51264E8700A
:100246000201A6E51264E9700201A9E51264EA70EA
:100256000201ACE51264EB700201AFE51264EC70CA
:100266000201B2E51264ED700201B5E51264EE70AA
:100276000201B8E51264EF700201BBE51264F0708A
:100286000201BEE51264F1700201C1E51264F2706A
:100296000201C4E51264F3700201C7E51264F4704A
:1002A6000201CAE51264F5700201CDE51264F6702A
:1002B6000201D0E51264F7700201D3E51264F8700A
:1002C6000201D6E51264F9700201D9E51264FA70EA
:1002D6000201DCE51264FB700201DFE51264FC70CA
:1002E6000201E2E51264FD700201E5E51264FE70AA
:0E02F6000201E8E51264FF700201EB01EE2246
:10030400850E12112685000ED3E5B092E6F5B08570
:1003140000A0D3E5B092E7F5B0C3E5B092E7F5B03D
:0F032400750F00C3E50F94155004050F80F522E7
:10033300753000753100D3E59692E1F596E53065A9
:0C0343000E7004E531650F600280F222AC
:10034F00C3E5B092E6F5B0850EA0D3E5B092E7F520
:10035F00B0C3E5B092E7F5B0750F00C3E50F941485
:10036F005004050F80F5E50E6401600EE50E640282
:10037F006008E50E64036002801F751000751100A0
:10038F00C3E51094F4E5119401500E74012510F596
:0A039F001074003511F51180E722FB
:0E03A900850C82A80D7900850083E0A8E02273
:1003B700750C00E580541FF844C0F580750D00C327
:1003C700E50D940A5004050D80F5209003750C3750
:1003D700E580541FF844A0F580750D00C3E50D9422
:1003E7000A5004050D80F5209003750C38E58054FC
:1003F7001FF84460F580750D00C3E50D940A50049D
:0D040700050D80F5209003750C39A80C221E
:100414007596F94396085396FB43878075987275D1
:100424008922758DF5C2ACC28FD2ABD2AFC3E58938
:1004340092E7F589C3E58992E6F589C3E58992E5F2
:10044400F589D3E58992E4F589C28E758DFC758BA7
:1004540018D28E75B0FFD2A8750E1E750F007133B9
:10046400C3E5B092E5F5B0750E3C714F750E0C7195
:100474004F750E01714F750E06714F750E40714F19
:10048400750C00C3E50C94085009750E0071040541
:100494000C80F0750C00C3E50C94085009750E101F
:1004A4007104050C80F0750C00C3E50C9408500928
:1004B400750E187104050C80F0750C00C3E50C94DE
:1004C400085009750E1C7104050C80F0750C00C3EE
:1004D400E50C94085009750E1E7104050C80F07526
:1004E4000C00C3E50C94085009750E1F7104050C2B
:0304F40080F02273
:0804F700E493F608A3D9F922F1
:1004FF00750E80714F750C00C3E50C941050097583
:09050F000E207104050C80F0229D
:10051800750C00750D00750E80714FC3E50C9410B5
:1005280074006480F8E50D6480985053E546250C06
:10053800F9E4350DFAC3E9941074006480F8EA64AC
:1005480080984018E546250CF8E4350DF9C3E89481
:1005580010F8E99400F9AA00AB01800DE546250CD6
:10056800F8E4350DF9AA00AB0174322AF8860E7149
:10057800047401250CF50C7400350DF50DA123E567
:0905880046700375461015462269
:10059100C0D0C0E0C0F0C082C083C2AFC28FC28EE3
:1005A100758DFC758B1874012530F530740035316B
:1005B100F531D2AFD28ED083D082D0F0D0E0D0D07E
:0105C1003207
:1005C200C0D0C0E0C0F0C082C083C2AFA284B392E8
:0E05D20084D2AFD083D082D0F0D0E0D0D0322F
:1005E0007581801206CA9114C280D281D282C284DF
:1005F000750C00750D0071A9850009D3E8941E5093
:1006000009C3E509940540028003750905750C02CC
:10061000750D0071A985000AD3E8941E5009C3E541
:100620000A940540028003750A05750C01750D00DA
:1006300071A9850008D3E8941E5009C3E508940504
:100640004002800375080571B7850044803C91FF26
:10065000B118E543600A754505754300C281D28033
:10066000803A91FFB118E543600A75450175430072
:10067000D282C280802691FFB118E543600A754599
:1006800003754300C282D2818012E545640160BED9
:10069000E545640360CCE545640560DA750E647574
:1006A0000F007133E50B70057543018002150BC116
:0306B0004780FE82
:0E06CA00783079177582B37583061204F72213
:0206B300000045
:1006B500EFF0E8E2E5F220EAE0EA20E4E5EBE02904
:0106C5000034
:0106C6000033
:0106C7000032
:0106C8000130
:0106C9001020
:00000001FF
